:020000023000CC
:10FC000001C037C100D00F920F92CDB7DEB71124DB
:10FC100084B7811569F0982F9A70923049F081FF6E
:10FC200002C097EF94BF282E80E00ED10C94000004
:10FC30008EE00AD15A9A529AF3D0853509F46EC0F3
:10FC400088F4853409F468C040F4813409F455C05F
:10FC5000823409F45EC0FED059C08135E1F788E0F6
:10FC6000F3D0F9CF843709F4A3C008F03CC086353F
:10FC700009F463C0843679F7D3D0E82ED1D0E82FC9
:10FC8000FE2D7F01CDD08B83EC82FD82C12C82E0E2
:10FC9000D82EC982DA82FFEFCF1ADF0AC1D0E981FC
:10FCA000FA8180832C813D81215031092C833D8351
:10FCB000232B79F7CFD03B81353409F050C0EC814C
:10FCC000FD81EE16FF0611F1EC81FD81FE5F608182
:10FCD0008C819D81800F911FE4D08C819D81019644
:10FCE0008C839D83ECCF853709F0B5CFB3D08EE1FF
:10FCF00088D088E986D081E008C092D08983AAD0D4
:10FD0000298183E0213809F488E07BD080E179D033
:10FD100093CF84E1A7D0FACF85E0FCCF81D0082F24
:10FD20007FD0182F87FF06C08BB781608BBF000F75
:10FD3000111F91CF8BB78E7FF9CF72D08D3469F4BC
:10FD40006FD03BB739836CD0880F99819170892B24
:10FD50008BBF81E087D080E0D8CF83E0FBCF83E00A
:10FD6000F80187BFE89507B600FCFDCF81E0EC8184
:10FD7000FD81E00FF11FAC81BD81BE5F2D913D91F2
:10FD8000090187BFE89511242C813D812E5F3F4FEB
:10FD90002C833D83E216F30651F725E0F80127BFD7
:10FDA000E89507B600FCFDCF31E137BFE895AECF4F
:10FDB00037D0E82E35D08983EA8232D0D82E4AD087
:10FDC0007801F5E4DF1211C0C70163D01AD0298190
:10FDD0003A812150310929833A833FEFE31AF30A2C
:10FDE00089819A81892B81F791CFF70187917F01D2
:10FDF00008D0E981FA813197E983FA83EF2BA9F7DB
:10FE000085CF2AE030E08095089410F45A9802C01B
:10FE10005A9A000015D014D086952A95B1F7089506
:10FE2000A89529E030E04B99FECF0AD009D008D040
:10FE300088944B9908942A9511F08795F7CF0895E7
:10FE400097E89A95F1F70895E0E6F0E098E190835D
:10FE500080830895E5DF803219F088E0F5DFFFCF79
:10FE600084E1CFCFCF93C82FDBDFC150E9F7CF912B
:10FE7000F1CFFC010A0167BFE895112407B600FC29
:10FE8000FDCF667029F0452B19F481E187BFE89515
:10FE90000895F999FECF92BD81BDF89A992780B552
:10FEA0000895262FF999FECF1FBA92BD81BD20BDBE
:10FEB0000FB6F894FA9AF99A0FBE01960895FF5674
:10FEC000657273696F6E3D382E33004465766963E1
:10FED000653D61746D6567613235363000465F435C
:10FEE00050553D31363030303030304C004249478B
:10FEF000424F4F543D31004275696C743A4A616E0D
:10FF000020203320323032363A31313A31333A33ED
:10FF10003300554152543D3000534F46545F5541D4
:10FF200052543D3100424155445F524154453D31A8
:0CFF300039323030004C45443D4237006F
:02FFFE000308F6
:040000033000FC00CD
:00000001FF
